:020000040800F2
:1000000010670020810200084F42000809370008ED
:100010004D4200086D09000801550008000000006D
:10002000000000000000000000000000C101000806
:10003000AF0A0008000000001D020008094800087F
:100040009B0200089B0200089B0200089B0200081C
:100050009B0200089B0200089B0200089B0200080C
:100060009B0200089B0200089B0200089B020008FC
:100070009B0200089B0200089B0200089B020008EC
:10008000A90900089B0200089B0200089B020008C7
:10009000710900089B0200089B0200089B020008EF
:1000A0009B0200089B0200089B0200089B020008BC
:1000B0000D4900089B0200089B0200089B020008F3
:1000C0009B0200089B0200089B0200089B0200089C
:1000D0009B020008DD540008E95400089B02000858
:1000E0009B0200089B0200089B0200089B0200087C
:1000F0009B0200089B0200089B0200089B0200086C
:100100009B0200089B0200089B0200089B0200085B
:100110009B0200089B0200089B0200089B0200084B
:100120009B020008B5090008C10900089B020008ED
:100130009B0200089B0200089B0200089B0200082B
:100140009B0200087D0900089B0200089B02000832
:100150009B0200089B0200089B020008F55400085F
:100160009B0200089B0200089B0200089B020008FB
:100170009B0200089B0200089B0200080000000090
:100180009B0200089B020008195000082550000837
:100190009B0200089B0200089B0200089B020008CB
:1001A00000000000000000009B020008DFF80CD0F7
:1001B00000F092FB004800475362000810670020DF
:1001C0002C4B19680868B0E8F04F80F30988BFF33A
:1001D0006F8F4FF0000080F311887047000000001F
:1001E00008480068006880F308884FF0000080F33A
:1001F000148862B661B6BFF34F8FBFF36F8F00DF15
:1002000000BF00BF08ED00E0DFF80C00016841F41A
:1002100070010160704700BF88ED00E0EFF30980D6
:10022000BFF36F8F134B1A681EF0100F08BF20ED3D
:10023000108A20E9F04F106009B44FF0500080F3AD
:100240001188BFF34F8FBFF36F8F06F093FE4FF00F
:10025000000080F3118809BC19680868B0E8F04F05
:100260001EF0100F08BFB0EC108A80F30988BFF3AE
:100270006F8F704744000020EFF305807047000047
:100280000648804706480047FEE7FEE7FEE7FEE730
:10029000FEE7FEE7FEE7FEE7FEE7FEE7B9480008F7
:1002A000AD0100082DE9F05F0546002092469B460F
:1002B00088460646814640241BE02846414647467C
:1002C000224600F052FA53465A46C01A914110D3C2
:1002D00011461846224600F039FA2D1A67EB01083C
:1002E0004F4622460120002100F030FA17EB0009AA
:1002F0004E41201EA4F10104DFDC484631462A4667
:100300004346BDE8F09F40EA01039B0703D009E0A4
:1003100008C9121F08C0042AFAD203E011F8013BF1
:1003200000F8013B521EF9D27047D2B201E000F84A
:10033000012B491EFBD270470022F6E710B5134689
:100340000A4604461946FFF7F0FF204610BD2DE986
:10035000FE4F804681EA0300C00F0C46009021F05A
:10036000004123F00045B8EB0200A94105D2404608
:10037000214690461C460B46024623F0004010439F
:1003800047D0270DC7F30A00C3F30A510290401A61
:10039000019040286BDAC3F3130040F4801B0098EF
:1003A000924620B10023D2EB030A63EB0B0B0198BA
:1003B0005946C0F14002504600F0C8F906460D46C5
:1003C00050465946019A00F0E0F910EB08006141EF
:1003D000002487EA115284EAE7731A4340D0009A56
:1003E00062B3019A012A4FEA075215DC001B61EB48
:1003F00002014FF0004202EA0752CDE90042001C20
:1004000041F5801132462B4600F017FA03B0BDE8E3
:10041000F08F40462146F9E7001B61EB0201001C0A
:1004200041F5801300185B412018A2F5001747EB37
:10043000030140EAD570B6196D4111E06D084FEA2D
:10044000360645EAC0754FEA0752001B61EB020110
:10045000001C41F5801149084FEA30000019514154
:1004600032462B4603B0BDE8F04F00F0D7B90098F4
:10047000012240000023D0EB020263EBE0730098FE
:1004800021464FEAE074B8EB000061EB0401E9E7B4
:1004900083F000435BE781F0004158E72DE9FE4F10
:1004A00081EA030404F0004421F0004100944FF07D
:1004B000000B23F0004350EA01045ED052EA03042B
:1004C0005BD0C3F30A54C1F30A552C44A4F2F334AD
:1004D0000194A0FB0254C1F3130141F48011C3F352
:1004E000130343F4801301FB024400FB034E840A10
:1004F000970A44EA815447EA8357A4FB07680295A8
:100500008D0A05FB07854FEA932C04FB0C54270545
:10051000029D4FEA065847EA1637B5EB08056EEB21
:10052000070C870E920E47EA811742EA8312A7FB57
:100530000201B6EB0B0164EB00042B0D43EA0C3314
:100540005E1844EB1C50DA465146E7FB0201C5F346
:1005500013044FEA0B3343EA14534FEA0432019C6D
:1005600043EA0603A4F10C040294009CCDE900B414
:1005700000F063F903B0BDE8F08F00200146F9E711
:100580002DE9F04D81EA030404F0004B21F0004511
:1005900014464FF0000A23F0004150EA050220D033
:1005A00054EA01021DD0C5F30A570246C5F31303EE
:1005B000C1F31300C1F30A5640F4801543F48013CD
:1005C000A7EB0608101BD64608F2FD3873EB0500B2
:1005D00002D308F1010801E092185B41B8F1000F65
:1005E00003DA00200146BDE8F08D00204FF48011B1
:1005F000064684460EE0171B73EB050705D3121B56
:1006000063EB050306434CEA010C49084FEA30004E
:1006100092185B4150EA0107EDD152EA030012D073
:1006200082EA040083EA0501084305D0101BAB41B0
:1006300006D20122002306E000224FF0004302E030
:100640006FF0010253101AEB06004CEB085110EB4F
:100650000A0041EB0B01BDE8F04D00F0DFB80EB52C
:10066000C10F80EAE0700844CA07002140F233431A
:100670008DE80E000A460B4600F0DFF803B000BD1F
:1006800070B5C1F30A5201F000450024C1F3130113
:1006900040F2FF3341F480119A4201DA002070BD2C
:1006A00040F233439A42A2F2334203DC524200F05A
:1006B0005CF800E090402C43F1D0404270BD00F067
:1006C000004230F000400AD0C10D01F56071C0F366
:1006D000160042EA0151C20840071143704700204A
:1006E0000146704730B5041E71F1000404DB4FF081
:1006F0000044404264EB0101141E73F1000405DB69
:100700001C464FF00043524263EB0403994208BF7A
:10071000904230BD01F0004330B421F0004150EA76
:10072000010206D00A0DA2F56072C1F31301002A7E
:1007300002DC30BC00207047440F44EAC104C10011
:10074000E01830BC00EBC25000F031B8202A04DBC6
:10075000203A00FA02F1002070479140C2F12003D4
:1007600020FA03F3194390407047202A04DB203A13
:1007700021FA02F00021704721FA02F3D040C2F1C1
:1007800020029140084319467047202A06DBCB1708
:10079000203A41FA02F043EAE07306E041FA02F33C
:1007A000D040C2F120029140084319467047002909
:1007B000A8BF7047401C490008BF20F001007047E7
:1007C00010B4B0FA80FC00FA0CF050EA010404BF47
:1007D00010BC704749B1CCF1200421FA04F411FA9D
:1007E0000CF118BF012121430843A3EB0C01CB1DE1
:1007F0004FEA00614FEA102042BF002010BC704752
:1008000000EBC35010440029A4BF10BC7047401C2B
:10081000490008BF20F0010010BC704710B5141E3D
:1008200073F1000408DA401C41F1000192185B41A9
:100830001A4301D120F0010010BD2DE9F04D924680
:100840009B4611B1B1FA81F202E0B0FA80F2203297
:100850009046FFF77BFF04460F4640EA0A0041EA54
:100860000B0153465A46084313D0114653EA010080
:1008700019D0C8F140025046FFF777FF05460E46F3
:10088000504659464246FFF761FF084305D0012014
:1008900004E020463946BDE8F08D0020054346EAD5
:1008A000E0762C4337430A986305E40AA0EB08007E
:1008B0000022FD0A44EA47540A3002D500200146CE
:1008C000E9E7010510196941DDE9084500196941A9
:1008D000BDE8F04DA2E70000064C074D06E0E068D9
:1008E00040F0010394E8070098471034AC42F6D377
:1008F000FFF760FCA87C0008C87C00080EB540F239
:10090000334102910021CDE900110A460B46FFF761
:1009100094FF03B000BD70B58C1810F8015B15F0A2
:10092000070301D110F8013B2A1106D110F8012B61
:1009300003E010F8016B01F8016B5B1EF9D12B0786
:1009400005D40023521E0DD401F8013BFAE710F83C
:10095000013BCB1A921C03E013F8015B01F8015B29
:10096000521EF9D5A142D8D3002070BDFEE7000089
:10097000014800F06CBE0000AC030020014800F00C
:1009800066BE0000D4030020027862F307014278BB
:1009900062F30F218278C07862F3174160F31F6120
:1009A00000EE101A70470000014801F0D7B80000AF
:1009B000980A0020014801F0D1B80000F80A002090
:1009C000014801F0CBB80000380A00200168182364
:1009D000CAB2103AB2FBF3F2054B6FF30901032AD6
:1009E0009B5CC36500D9091D8165084670470000FE
:1009F0004478000810B5014600208B698A6A4FF0E0
:100A0000C07453B1B3F5005F15D072B1012A0CD098
:100A1000022A0AD0032A09D104E01AB1012A06D019
:100A2000022A03D1C96AC90100D5012010BDC96AD3
:100A3000A142FAD010BD002AF7D0012AF2D0022A32
:100A4000F3D0032AF3D010BD10B504686360836847
:100A5000402B036803D099600068C26010BD9A60A3
:100A60000068C16010BD38B50C4601684D6945F09D
:100A700040054D61009301681346406B2246091DF5
:100A800001F027F838BD30B50468256825F48025C5
:100A90002560046863608368402B036803D0996015
:100AA0000068C26030BD9A600068C16030BD7047A8
:100AB0007047000010B516481649012403781648FF
:100AC0000A68022B0BD0012B19D04FF47A730384E0
:100AD00093630968CB63002180F8241010BD038C58
:100AE000B3F5A06F02D25B1C038401E080F82440C0
:100AF0009BB293630968CB6380F8244010BD80F8F3
:100B000024404FF4966090630968C86310BD0000EC
:100B10006C030020F8060020485C002070B52DED25
:100B2000028B06F02FFD224C224920610B68596A86
:100B30009FED218A0AB262806169411AA16111D0D8
:100B400000EE102AF8EEC00A00EE101A04F1280197
:100B5000B8EE400A80EE801AB0EEC10AC0EE080A74
:100B6000C1ED060A002560615D6206F00BFD1349C8
:100B7000E0610B68596A0AB2A280216A411A616277
:100B800011D000EE102AF8EEC00A00EE101A084943
:100B9000B8EE400A503180EE801AB0EEC10AC0EEC5
:100BA000080AC1ED060A20625D62BDEC028B70BDD1
:100BB000AC000020780700209A99993EF8070020A1
:100BC00070B53C21124802F0BDF83C21114802F0FA
:100BD000B9F8114C4FF4FA652068C5632068856345
:100BE0000821204602F070FA0421204602F06CFA37
:100BF000284601F029F921686810C86321688863D4
:100C000001F022F9054806490088088470BD0000FB
:100C1000F807002078070020F8060020AC0000202C
:100C2000485C002010B558B1084C491E0BD310F891
:100C3000013B5340DBB234F8133083EA1222F4E76D
:100C40004FF6FF7010BD104610BD00007879000807
:100C500010B5054C04E000BF10F8013B5340E25CC6
:100C6000491EF9D2104610BD7878000841B101291B
:100C700008D002290DD003290DD04FF480607047B1
:100C8000408800E08088A0F2F731122905D80020C2
:100C90007047C088F7E70089F5E7A0F5806000B2EB
:100CA0007047102948D2DFE801F0080C1014181C16
:100CB0002024282C3034383C4044007D00F00100D2
:100CC0007047007DC0F340007047007DC0F3800096
:100CD0007047007DC0F3C0007047007DC0F3001076
:100CE0007047007DC0F340107047007DC0F3801056
:100CF0007047007DC0F3C0107047808AC0F30020A9
:100D00007047808AC0F340207047808AC0F38020FB
:100D10007047808AC0F3C0207047808AC0F30030DB
:100D20007047808AC0F340307047808AC0F38030BB
:100D30007047808AC00B704700207047032903D09A
:100D4000042903D000207047807C7047C07C704726
:100D500019B1012903D003207047C07A7047807A07
:100D6000704700002DE9F04104462DED068B0D463D
:100D70009648007800287DD09FED95AB9FED969B1F
:100D8000974FDFF860829FED988A984E012872D0C5
:100D900002287FD100219648FFF768FFFFF75FFC2C
:100DA00053EC1A2BFFF77AFB53EC192BFFF7E8FBF8
:100DB00041EC1A0B6868FFF782FC53EC1A2BFFF723
:100DC00067FBFFF7A7FC686003218948FFF74EFF28
:100DD000FFF745FC96ED081B53EC112BFFF75EFB6C
:100DE00053EC192BFFF7CCFB41EC190B6068FFF7B4
:100DF00066FC53EC192BFFF7AAFAFFF78BFC606037
:100E000000217B48FFF74DFFDFED7A8A28B194ED92
:100E1000010A30EE280A84ED010A01217448FFF727
:100E200040FF94ED010A18B130EE680A84ED010A22
:100E300010EE100A404501D8B0EE408A18EE100AB4
:100E400084ED018AB84201DDB2EE048A84ED018AA4
:100E5000D5ED010A96ED061A9FED670A31EE000AFC
:100E6000F4EEC00AF1EE10FA01DCB0EE600A85ED96
:100E7000010A02E012E01AE00CE0DFED600A71EE18
:100E8000600AB4EEE00AF1EE10FA01D2B0EE600AA8
:100E900085ED010ABDEC068BBDE8F08194ED020AF8
:100EA00084ED010A95ED020A81ED010AF2E70021C5
:100EB0004F48FFF7DBFEFFF7D2FB53EC1A2BFFF78F
:100EC000EDFA53EC192BFFF75BFB41EC1A0B68684A
:100ED000FFF7F5FB53EC1A2BFFF7DAFAFFF71AFCD2
:100EE000686003214248FFF7C1FEFFF7B8FB96EDAB
:100EF000081B53EC112BFFF7D1FA53EC192BFFF71A
:100F00003FFB41EC190B6068FFF7D9FB53EC192B41
:100F1000FFF71DFAFFF7FEFB00EE100A84ED010A51
:100F2000D5ED030A95ED051A60EE810AF5EEC00ACB
:100F3000F1EE10FA01D2C820308010EE100AB8424B
:100F400001DDB2EE040A10EE100A84ED010A4045FC
:100F500001D8B0EE408A84ED018A96ED061A9FED25
:100F6000280AD5ED010A31EE000AF4EEC00AF1EECE
:100F700010FA01DCB0EE600ADFED220A85ED010A0D
:100F800071EE600AB4EEE00AF1EE10FA01D2B0EEB2
:100F9000600A85ED010A94ED011ADFED1B0A1B487A
:100FA00021EE201A20EE200ABDEEC11ABDEEC00AC5
:100FB00086ED021A86ED030A94ED020A80ED000A1E
:100FC000134895ED020A80ED000A63E76B030020E9
:100FD000B81E85EB51B8EEBF0000000000A08440B1
:100FE00000002041000070C2000070C230010020EB
:100FF000AC6200200AD7A33D00002A430000B4429F
:10100000000016430000A0420000C8420003002078
:10101000040300202DE9F05FC64EC74FDFF81C83A4
:101020000D462DED068B04009FEDC59ADFF8149355
:101030009FEDC5AADFF814A39FEDC58ADFF814B3AE
:10104000DFEDC59ADFEDC5AADFEDC58A7ED094ED50
:10105000142A84ED152AD4ED010A94ED020A70EEEB
:10106000C00AC4ED140A94ED171AF0EEE00AF4EE8B
:10107000C10AF1EE10FA01D2C4ED14AAD4ED140A9B
:1010800010EE900AB04201DD70EEE80A10EE900A10
:10109000C4ED140AB84201D970EEA80AF6EE002A8F
:1010A000C4ED140A70EE821A94ED161A01EEA21A1B
:1010B00011EE100A84ED161A404501DDB0EE491A12
:1010C00011EE100A84ED161A484501D9B0EE4A1AFD
:1010D00084ED161AD4ED111A94ED123A61EEA01AAD
:1010E00070EEC20A43EE011A94ED131A41EE201A73
:1010F000C4ED181AC4ED041AD4ED0C0AC4ED0D0A9F
:1011000094ED051A31EEC11A84ED0C1AD4ED0F1AC4
:10111000B0EEC11AB4EEE11AF1EE10FA01D2C4ED4C
:101120000CAA94ED0C1A31EE201AD4ED0E0A41EE01
:10113000220A10EE900AC4ED0E0A504501DDF0EED1
:10114000480AC4ED0E0A10EE900A00E03BE0584554
:1011500001D9F0EE690AC4ED0E0A03F053F900EE6E
:10116000100AD4ED0C0AD4ED0A1AB8EEC01A94EDA8
:10117000090A94ED0E2A7B4920EE200A01EE820A2C
:10118000D4ED0D1A70EEE10AD4ED0B1A01EEA00AAF
:1011900031EE000A10EE100A84ED100A884202DDDA
:1011A000DFED710A01E0F0EE400A10EE101AFDEEDC
:1011B000E00A6E4A10EE900A914200B2208300D9F4
:1011C0006B4840422083002D7ED095ED141A85EDAA
:1011D000151A95ED010AD5ED020A30EE600A85ED8B
:1011E000140AD5ED170AB0EEC00AB4EEE00AF1EE2B
:1011F00010FA01D2C5ED14AA95ED140A10EE100AEA
:10120000B04201DD30EE680A10EE100A85ED140AD6
:10121000B84201D930EE280A85ED140AD5ED160A38
:1012200070EE808A18EE900AC5ED168A404501DD01
:10123000F0EE498A18EE900AC5ED168A484501D8A5
:10124000B0EE68AA85ED16AAD5ED110AD5ED121AF1
:1012500060EE800A30EE410A95ED131A41EE8A0ADB
:1012600041EE000AC5ED180AC5ED030A95ED0C1A0A
:1012700085ED0D1A95ED050A30EEC00A85ED0C0AD4
:10128000D5ED0F0AB0EEC00AB4EEE00AF1EE10FAA6
:1012900001D2C5ED0CAA95ED0E0AD5ED0C0A30EE83
:1012A000200A10EE100A85ED0E0A504501DCB0EE62
:1012B000408A18EE100A85ED0E8A584501D8F0EEE6
:1012C000489AC5ED0E9A00E030E095ED090AD5ED9B
:1012D0000A1A284820EE200A70EEC10A95ED0B1A72
:1012E000B0F9000001EEA90A234901EE200A00EE40
:1012F000900AF8EEE00A30EE200A10EE100A85EDB2
:10130000100A884202DDDFED1D0A01E0F0EE400A1E
:1013100010EE101AFDEEE00A194A10EE900A914202
:1013200000B2E88300D917484042E883BDEC068B41
:10133000BDE8F09F00003443000034C300409C45EA
:1013400000409C4500409CC500409CC500401C4698
:1013500000401C4600401CC600401CC600000000A7
:101360000000B4430090E2460090E2460090E2C6DE
:10137000B88EFFFF3001002000007A4600007A4658
:1013800000007AC680C1FFFF2DE9F0411C4B012609
:101390000D4603F8046B002471029C6019604FF045
:1013A0000808C3E90348010A197658769C76DC766A
:1013B0001C775C77100A9877DA77124F234603225E
:1013C0000F49386805F0F2FE0D4840F2FF11243055
:1013D000002300F8046B032284600160C0E9034825
:1013E000047644768476C47604774477290A817734
:1013F000C5773868BDE8F0410149243105F0D6BE13
:10140000705C002028000020094910B5A1F164009B
:10141000FFF7A8FC0649A1F16400FFF7FBFD0449B2
:101420008C39B1F90000002801DD401E088010BD94
:10143000BC010020064890ED020A80ED010A8C38BC
:1014400080ED060A283090ED020A80ED010A70470F
:10145000BC01002090F82020012A07D0022A05D0E4
:10146000416A41F48021416201207047006842696D
:101470000A43426100207047F0B590F8205004689C
:10148000A468012D05D0022D03D0416A41F48021CA
:1014900053E014F0406F01D1E5004BD5C4F3016473
:1014A000022C03D9416A41F4000146E00125A54020
:1014B0001D608D684FF4C0739DB1CE6835434E6892
:1014C00045EAC605066803EB0417F5514FF4C275EB
:1014D000076805EB04150E697E51097D012905D0C9
:1014E00009E00E88CD6845EA4655EBE701684E599C
:1014F00046F480764E511179D2F805504FF4C676F5
:1015000041EA0525016806EB04168D511178D2F8E1
:1015100001204FF4C47541EA0221026805EB04156D
:101520005151006803EB0411425842F0010242504D
:101530000020F0BD416A41F4001141620120F0BD7C
:1015400010B590F82020012A07D0022A05D0416A60
:1015500041F480214162012010BD3B48D0F80022B7
:1015600042F00102C0F80022D0F8002222F47C529E
:10157000C0F80022D0F800224B6A42EA0322C0F8E9
:1015800000220A7D02F01F0301229A40D0F81C328B
:101590009343C0F81C32CB69B3B9D0F80C329343F3
:1015A000C0F80C328C894B6864F31F434C6900EB24
:1015B000C404C4F840320C890B6864F31F434C69BF
:1015C00000EBC404C4F84432CB69012B16D1D0F827
:1015D0000C321343C0F80C320C884B6864F31F4381
:1015E0004C6900EBC404C4F840320C89CB6864F346
:1015F0001F434C6900EBC404C4F844328B69002BD0
:10160000D0F804320ED01343C0F804320B69002B1B
:10161000D0F8143208D01343C0F81432096A0129F3
:1016200004D008E09343EFE79343F5E7D0F81C12AA
:101630001143C0F81C12D0F8001221F00101C0F8CB
:101640000012002010BD00000064004070472DE92A
:10165000F05F0546006800244669D0F8049087686A
:10166000D0F80CB0D0F810A0D0F81880F10748D00E
:10167000F90714D001218160B80703D5284600F08E
:1016800022FA0CE0780702D54FF4006407E038072F
:1016900002D54FF4805402E0284600F013FAF80512
:1016A00016D529684FF480708860B80503D52846A0
:1016B00000F00BFA0CE0780502D544F4005407E082
:1016C000380502D544F4804402E0284600F0FCF9D5
:1016D000F80316D529684FF480308860B80303D525
:1016E000284600F0F4F90CE0780302D544F40044F5
:1016F00007E0380302D544F4803402E0284600F0C5
:10170000E5F9300707D55FEACB6004D529681020DA
:1017100044F40074C86070074FF0080707D55FEA0B
:101720000B7004D52868C760284600F099F9B00707
:1017300006D52868C068800702D0284600F091F9D5
:10174000700607D55FEACA6004D52968102044F402
:1017500080640861B00607D55FEA0A7004D528687E
:101760000761284600F07EF9F00606D52868006972
:10177000800702D0284600F076F9B00308D55FEA6A
:10178000C96005D5296810204860284600F06CF92A
:10179000F00307D55FEA097004D52868476028463A
:1017A00000F096F9300446D55FEA497040D5F0055F
:1017B00004D55FEAC87001D044F00104B00504D537
:1017C0005FEA887001D544F00204700504D55FEA31
:1017D000487001D544F00404300529D518F0700F85
:1017E00026D008F07000402815D006DC102809D05B
:1017F00020280AD0302816D10AE050280ED06028C0
:1018000011D10EE044F008040DE044F010040AE0A9
:1018100044F0200407E044F0400404E044F0800475
:1018200001E044F480742868816921F070018161CD
:10183000296804204860002C05D0686A204368624B
:101840002846FFF703FFBDE8F09F70B5040003D002
:1018500094F8200010B104E0012070BD204600F093
:1018600081F82068016821F00201016000F0F6FBB8
:101870000546052604E000F0F1FB401B0A2811D8BC
:10188000206840688007F6D42068016841F00101B3
:10189000016000F0E3FB05460BE000F0DFFB401BBE
:1018A0000A2806D9606A40F40030606284F820603B
:1018B000D2E720684068C007EFD0207E012820686A
:1018C00001683DD021F080010160607E0128206820
:1018D000016838D021F040010160A07E0128206815
:1018E000016833D021F020010160E07E01282068EA
:1018F00001682ED041F010010160207F012820688E
:10190000016829D021F008010160607F012820686A
:10191000016824D021F004010160D4E902010843E8
:10192000D4E90412114308436168491E0843216841
:10193000C86100206062012084F82000002070BD92
:1019400041F08001C0E741F04001C5E741F02001CE
:10195000CAE721F01001CFE741F00801D4E741F0D8
:101960000401D9E7F0B587B0044614216846FEF7B4
:10197000E3FC364B3648DFF8D0E01968D4F800C0F5
:10198000334A03250226092710300024491CF44558
:1019900022D11960012907D1016841F0007101606D
:1019A000006800F000700590106840F008001060BA
:1019B0001068CDE9005600F00800CDE904706946D2
:1019C0002448CDE9024500F051FA002206211420F6
:1019D00000F0D0FB142033E0DFF87CE0F44531D197
:1019E000D0F800C04CF0806CC0F800C0D0F800C047
:1019F00001290CF0806CCDF814C0196007D1016882
:101A000041F000710160006800F0007005901068FE
:101A100040F002001060106802AB00F00200059078
:101A20004FF44050CDE9000683E8B00069460B480A
:101A300000F01CFA00220621412000F09BFB41200F
:101A400000F08AFB07B0F0BD006400402C000020CD
:101A500030380240000C02400068004000040240A0
:101A600070477047704770477047000070B5044674
:101A700090F82000012804D0606A40F400206062E1
:101A800018E0022084F820002068016821F001019C
:101A9000016000F0E3FA05460EE000BF00F0DEFA58
:101AA000401B0A2808D9606A40F4003060620520B3
:101AB00084F82000012070BD20684068C007EDD187
:101AC000606270BD704770477047704770477047DD
:101AD00070472DE9F041044680680025069E802865
:101AE0000ED094F8340001280FD0012084F834007F
:101AF00094F8350001280AD002252846BDE8F08177
:101B00004FF4807060650125F7E70220F6E70220B8
:101B100084F835002068076847F48027076020684C
:101B2000036133462046FEF78FFF2068016841F0CD
:101B300001010160E1E790F83510022903D080210E
:101B4000416501207047052180F835100068016863
:101B500021F0010101600020704700002DE9F843E9
:101B600004464FF00009CDF8009063484FF4165139
:101B7000A56D0068B0FBF1F72E6894F85C100820A2
:101B800000FA01F131420FD021680A6852070BD5E3
:101B90000A6822F004020A6094F85C108840A86089
:101BA000606D40F00100606594F85C104FF0010832
:101BB00008FA01F0304208D021684969090604D5C5
:101BC000A860606D40F00200606594F85C1004202D
:101BD0008840304208D021680968890704D5A86088
:101BE000606D40F00400606594F85C10102088403F
:101BF000304218D021680968090714D5A860206808
:101C00000168490304D50068000308D5A16C07E00A
:101C10000168C90503D4016821F008010160216C45
:101C200009B12046884794F85C1020208840304253
:101C300031D021680968C9062DD5A86094F835000F
:101C400005282068016806D0490347D500680003CD
:101C50001DD4616C1CE021F016010160206841690F
:101C600021F080014161206C08B9A06C20B120688E
:101C7000016821F00801016094F85C103F20884061
:101C8000A86084F8349084F83580216D1FE0E16B02
:101C900009B120468847606D00282BD0606DC007D1
:101CA00014D0052084F835002068016821F0010176
:101CB00001600098401C0090B84203D8206800687A
:101CC000C007F6D184F8349084F83580E16C00299F
:101CD00010D001B02046BDE8F04308470168C905AF
:101CE000D5D4016821F01001016084F8349084F8A3
:101CF0003580CCE7BDE8F883400000202DE9F041B5
:101D0000044600F0ABF906465CB1002584F8345077
:101D1000022084F835002068016821F0010101608B
:101D20000DE00120BDE8F08100F098F9801B052846
:101D300005D920206065032084F83500F2E720688B
:101D40000068C007F0D12268116820480140D4E93A
:101D500001031843D4E90336334318436369184336
:101D6000A3691843E3691843236A18430843616A67
:101D7000042903D1D4E90B131943084310602068E8
:101D80004069666A20F0070130460E4301270428A7
:101D90000CD1A06A0643E06A40B12046FEF72AFE55
:101DA00020B14020606584F83570BAE7206846614C
:101DB0002046FEF70BFE94F85C203F2191408160A5
:101DC000656584F835700020ACE700003F8010F0B6
:101DD0002DE9F0410446866D90F834000025012875
:101DE0000DD0012084F8340094F835700020012FC4
:101DF00007D084F8340002252846BDE8F08102208F
:101E0000FBE7022784F8357060652046FEF73BFE4D
:101E100094F85C103F208840B0602068016841F071
:101E2000160101602068416941F080014161206C28
:101E300020B12068016841F0080101602068016854
:101E400041F001010160D7E770B5044600F006F9E2
:101E50000546601C02D004480078044400F0FEF8F7
:101E6000401BA042FAD370BD340000202DE9F84F8A
:101E7000DFF890B100224FF001084FF0030A4FF055
:101E80000F090BF1040E00BF0B6808FA02F423409F
:101E9000A3426ED14D68022D01D0122D0ED1D5086E
:101EA00000EB850CDCF820505607F70E09FA07F610
:101EB000B5430E69BE402E43CCF82060066855003D
:101EC0000F790AFA05FC07F0030726EA0C06AF4073
:101ED000374307604E68012E05D0022E03D0112E25
:101EE00001D0122E0ED18768CE6827EA0C07AE40CB
:101EF0003E4386604668A6430C79C4F300149440C0
:101F000034434460C4688E6824EA0C04AE4026431F
:101F1000C6604C68E4006FD53B4C256845F48045AD
:101F20002560246822F0030504F480440094374CB3
:101F30002E19D6F8084895072F0F09FA07F5AC4374
:101F4000334DA84201D100252EE0324DA84201D1E7
:101F5000012529E0304DA84201D1022524E02F4D72
:101F6000A84201D103251FE02D4DA84202D104252E
:101F70001AE041E02B4DA84201D1052514E02A4D7D
:101F8000A84201D106250FE0284DA84201D107251E
:101F90000AE0274DA84201D1082505E0254DA842B9
:101FA00001D1092500E00A25BD402543C6F808589F
:101FB000DBF800405D464E689C43F60300D51C43A9
:101FC0002C60DEF8004075464E689C43B60300D591
:101FD0001C432C600B4D08352C684E689C43F60260
:101FE00000D51C432C60074D0C352C684E689C4373
:101FF000B60200D51C432C60521C102AFFF444AFDB
:10200000BDE8F88F003C01404438024000300140F8
:10201000000002400004024000080240000C0240A0
:10202000001002400014024000180240001C024050
:1020300000200240002402400069084000D0012036
:102040007047426931EA020200D109048161704798
:102050000AB1816170470904FBE70000014880680C
:102060007047000034000020024881680278114463
:1020700081607047340000200B4810B5016841F4BE
:1020800000710160016841F480610160016841F400
:1020900080710160032000F08DF8002000F006F848
:1020A00000F03EF8002010BD003C024010B5014693
:1020B00088B000221C2000F05DF81C2000F04CF8D5
:1020C00014480024016841F001010160006805A97D
:1020D00000F001000690684600F016F900F034F9AF
:1020E0000D494000B0FBF1F10C484FF08042491E11
:1020F000026040F2E732C0E90324C0E9011400F0B5
:10210000B7FC10B1012008B010BD044800F0FCFC81
:10211000F9E700004038024040420F00B8060020B6
:102120000C4882B0016841F480410160006800F40D
:10213000804000900748001F016841F08051016015
:102140000068002200F0805000900F21901E02B025
:1021500000F010B844380240002809DB00F01F02EC
:10216000012191404009800000F1E020C0F80011F9
:1021700070470000F0B40E4B1B680C46C3F30223FB
:10218000C3F10705042D00D90425191D072901D223
:10219000002300E0DB1E012606FA05F1491E21405E
:1021A00099409E40761E16403143F0BC03F0F3B9CF
:1021B0000CED00E0064900F0070208684FF6FF0347
:1021C000184040EA0220034A1043086070470000AC
:1021D0000CED00E00000FA052DE9F0470E46050081
:1021E00065D0DFF81481D8F80000F7B200F00F00D6
:1021F000B04207D288F80070D8F8000000F00F0055
:10220000B04254D128683D4C810712D5400703D510
:10221000206840F4E05020602878000703D520684B
:1022200040F4604020602068A96820F0F000084376
:1022300020602878C0072DD0304968680839012807
:1022400012D0022813D0032811D009688907002969
:102250002DDA216821F0030101432160FFF7FEFE22
:10226000814641F2883A0EE009688903EFE7096880
:102270008901ECE7FFF7F2FEA0EB0901514502D915
:102280000320BDE8F0872068696800F00C00B0EB1F
:10229000810FEFD1D8F80010404601F00F01B14294
:1022A00007D90770006800F00F00B04201D001208C
:1022B000E7E72878400705D52068E96820F4E05072
:1022C000084320602878000706D52068296920F493
:1022D000604040EAC100206000F056F82168084ADA
:1022E000C1F30311515CC840064908600020FFF7A4
:1022F000DDFE0020C5E70000003C02400838024037
:102300004C780008400000200F2202600C4A13683D
:1023100003F003034360136803F0F0038360136862
:1023200003F4E053C36012684FF4E05303EAD202AF
:1023300002610448006800F00F0008607047000068
:1023400008380240003C024004480549006809681A
:10235000044AC1F38221515CC8407047400000200C
:10236000083802405C78000804480549006809689C
:10237000044AC1F34231515CC8407047400000201C
:10238000083802405C780008154810B5006810F065
:102390000C02144813D01449042A0FD0082A0ED175
:1023A0000F4C241F2268236802F03F025B0207D50E
:1023B0002068C0F38810A0FB010106E0084610BDAC
:1023C0002168C1F38811A1FB00010023FDF76AFF1A
:1023D0002168C1F30141491C4900B0FBF1F010BD77
:1023E000083802400024F400001BB7002DE9F84F24
:1023F000050076D02878DFF8F8B2BE4CC00749D087
:10240000DBF800105846C1F38101012908D00068AB
:10241000C0F3810002280AD1201D0068400206D5C1
:102420002068800336D568680028E2D032E068680A
:10243000B0F5803F10D0B0F5A02F206810D020F468
:1024400080302060206820F4802020606868A0B17F
:10245000FFF704FE06460CE0206840F48030F4E705
:1024600040F480202060F7E7FFF7F8FD801B642828
:1024700073D820688003F7D50CE0FFF7EFFD064620
:1024800005E000BFFFF7EAFD801B6428F0D8206854
:102490008003F7D42878DFF8608280074FF00009C6
:1024A0003ED5DBF80010584611F00C0F09D000683B
:1024B000C0F3810002280BD18D48001F0068400244
:1024C00006D42068800715D5E868012809D111E0F5
:1024D000E868B8B10120C8F80000FFF7BFFD064664
:1024E00005E002E1FFF7BAFD801B0228C0D8206892
:1024F0008007F7D52068296920F0F80040EAC1007C
:1025000020600DE0C8F80090FFF7A8FD064604E043
:10251000FFF7A4FD801B02281FD820688007F7D48E
:102520002878000722D5724E744869696C3671B1FB
:1025300001210160FFF792FD074604E0FFF78EFDE1
:10254000C01B022809D830688007F7D50EE0C0F814
:102550000090FFF783FD074605E083E0FFF77EFD6F
:10256000C01B02287ED830688007F7D4287840073F
:1025700068D5DFF87CA100270AF1380ADAF80000F4
:10258000C0000BD4DAF8001041F08051CAF80010F6
:10259000DAF80000012700F080500090584E3068B3
:1025A000C00510D4306840F480703060FFF756FDED
:1025B000009005E0FFF752FD0099401A022851D81B
:1025C0003068C005F6D54A4EA868683601280FD095
:1025D0000528306810D020F001003060306820F00D
:1025E00004003060A868B8B1FFF738FD00900FE034
:1025F000306840F00100F4E740F004003060F7E795
:10260000FFF72CFD0099411A41F28830814264D8CD
:1026100030688007F4D50EE0FFF720FD009007E05A
:10262000FFF71CFD0099411A41F28830814254D8CD
:1026300030688007F4D42FB1DAF8001021F080510F
:10264000CAF80010A869C0B3DBF80010C1F381011B
:1026500002294AD00228484607D0C8F86000FFF790
:10266000FDFC00E039E005463AE04746C8F8600066
:10267000FFF7F4FC064604E0FFF7F0FC801B02289D
:102680002BD820688001F7D4D5E907010843A96A4F
:102690001C4A490802EB01416A6A41EA8211084377
:1026A00095F82C1040EA01611148001F01600120DB
:1026B0003866FFF7D3FC054605E014E0FFF7CEFCD3
:1026C000401B022809D820688001F7D50BE000BF25
:1026D000FFF7C4FC401B022802D90320BDE8F88F95
:1026E00020688001F4D40020F8E70120F6E700001C
:1026F000083802400038024000004742800E47423E
:10270000007000400000FFFF70B5040005D00025F8
:10271000A56294F8510010B106E0012070BD84F864
:102720005050204600F030F8022084F85100206814
:10273000016821F040010160D4E901010843D4E9B6
:1027400003121143084361690843218B01F40071AE
:102750000843E1690843216A0843A16A08432168E4
:102760000860A069042101EA1040616A08432168F9
:1027700048602068C16921F40061C161656501207C
:1027800084F85100002070BD10B586B004461421B5
:102790006846FDF7D1FD14492068884221D11348CD
:1027A0000021026842F480120260006800F4801088
:1027B00005900E481438026842F02002026000685A
:1027C00000F0200005904FF4607000900220CDE9E9
:1027D0000101032003900520049069460448FFF797
:1027E00045FB06B010BD00000050014044380240D7
:1027F000001402402DE9F84F044690F850000027DD
:102800000A9E1D4692468B464FF0010901280ED0C4
:10281000012084F85000FFF721FC804694F8510015
:10282000616801280CD0B1F5827F07D102E0022057
:10283000BDE8F88FA16809B9042801D00227C2E0D9
:10284000BBF1000F27D0BAF1000F24D01DB394F8CC
:102850005100042802D0052084F851000020606552
:10286000C4F838A0E587A587C4F830B0E586A5860A
:102870002064606420680168490603D4016841F05F
:1028800040010160E068B0F5006F606805D0E8B312
:10289000012D46D07FE0012795E008B1012D39D107
:1028A000206B21680088C860206B801C2063E08E4C
:1028B000401EE0862EE02068816889070FD5E18EF2
:1028C00069B1B9F1010F0AD1216B0988C160206B90
:1028D000801C2063E08E401EE0864FF000092068D7
:1028E0008168C9070CD0E18F51B1C068A16B088025
:1028F000A06B801CA063E08F401EE0874FF00109B1
:10290000FFF7ACFBA0EB0800B04200E009E001D308
:10291000701C50D1E08E0028CDD1E08F0028CAD1A4
:102920003FE0206B216800780873206B401C206317
:10293000E08E401EE0862EE02068816889070FD572
:10294000E18E69B1B9F1010F0AD1216B09780173E8
:10295000206B401C2063E08E401EE0864FF0000993
:1029600020688168C9070CD0E18F51B1C068A16BA4
:102970000870A06B401CA063E08F401EE0874FF002
:102980000109FFF76BFBA0EB0800B04202D3701CFB
:1029900001D010E07EB1E08E0028CDD1E08F00287C
:1029A000CAD142463146204601F0DCFD28B101275C
:1029B0002020606507E0032705E0A06818B92068BB
:1029C000C16880680090012084F85100002084F8DC
:1029D000500038462CE77047704710B590F83C20FF
:1029E000012A22D0012280F83C20CA688C6822F497
:1029F000407222434C6822F4806222430C6822F425
:102A0000006222430C6922F4805222434C6922F472
:102A100000522243C969002322F480420A4301681C
:102A20004A6480F83C30002010BD022010BD70B513
:102A300090F83C20012A19D0012400F83C4F0222D2
:102A4000427050F83C3C5A689D6822F070060A6853
:102A50004968324325F0800529435A6050F83C2CE0
:102A60009160447000210170084670BD022070BD65
:102A700010B5040003D094F83D0010B107E0012028
:102A800010BD002084F83C00204600F00DF8022024
:102A900084F83D00211D206801F03EFF012084F8EC
:102AA0003D00002010BD000008B5016812488142B9
:102AB00008D11248016841F001010160006800F08E
:102AC00001000BE00D480E4A001F914208D1016839
:102AD00041F002010160006800F00200009008BDB2
:102AE000084A9142FBD1016841F008010160006889
:102AF00000F00800F2E70000000001404438024006
:102B000000040040000C00400168CA6842F0010265
:102B1000CA600068816801F00701062903D00168D6
:102B200041F0010101600020704770B5044690F843
:102B30003C00012817D0012584F83C50022084F87D
:102B40003D002068826822F0770222F47F42826092
:102B50000868502830D00DDC20284DD005DC98B313
:102B600010283BD148E0022070BD302844D04028D6
:102B700034D139E0602828D0702806D0B0F5805FC5
:102B80002CD0B0F5005F29D10AE0CB68D1E9012152
:102B9000206801F032FF2068816841F0770109E088
:102BA000CB68D1E90121206801F027FF2068816806
:102BB00041F48041816011E0CA684968206801F0F1
:102BC000F1FF5021206807E016E0CA6849682068D4
:102BD00001F0F9FF6021206801F019FF84F83D50F1
:102BE000002084F83C0070BDCA684968206801F084
:102BF000D9FF40212068EFE7226801461046EBE745
:102C00002DE9F0410D46040003D094F83D0018B1C1
:102C100008E00120BDE8F081002084F83C00204657
:102C200000F03AF8022084F83D002068816844F200
:102C3000070291438160211D206801F06DFE22682A
:102C400090689169166A2B68AF69034340F20330BC
:102C5000814341EA0721A868EF6908434FF6FC4128
:102C60008843E96840EA0720014328692F6A000188
:102C700040EA0730084369686D6926F0AA0646EA0B
:102C80000515294393602268906120680162012044
:102C900084F83D000020BDE710B586B0044614213D
:102CA0006846FDF749FB2268214C00212148022398
:102CB000A2421BD11F4A1032146844F0040414606D
:102CC000126802F004020592026842F008020260F3
:102CD000006800F0080005904FF440500090CDE9E6
:102CE0000131CDE90313694613481DE0134CA2429C
:102CF0001CD1104A1432146844F0020414601268A3
:102D000002F002020592026842F4807202600068DA
:102D100000F48070059060200090CDE9013103201F
:102D2000CDE9031069460648FFF7A0F806B010BDCC
:102D30000008004030380240000C0240000401400E
:102D40000020024010B50446006891B1042904D067
:102D50000122002101F044FE206801225FF00401FD
:102D600001F03EFE2068016841F001010160002091
:102D700010BD01220021F3E7704770B504460068DA
:102D800001694FF00005C943890715D4C168C943DB
:102D9000890711D4E91E016101202077206880692C
:102DA0008007204602D0FFF7E7FF04E000F006F9B5
:102DB000204600F088F9257720680169C943490752
:102DC00017D4C168C943490713D46FF004010161E6
:102DD000022020772068806910F4407F204602D0CE
:102DE000FFF7CAFF04E000F0E9F8204600F06BF9B5
:102DF000257720680169C943090716D4C168C9430A
:102E0000090712D46FF008010161042020772068BF
:102E1000C0698007204602D0FFF7AEFF04E000F053
:102E2000CDF8204600F04FF9257720680169C943A5
:102E3000C90617D4C168C943C90613D46FF010017D
:102E40000161082020772068C06910F4407F204687
:102E500002D0FFF791FF04E000F0B0F8204600F048
:102E600032F9257720680169C943C90708D1C168CB
:102E7000C943C90704D1891E0161204600F046F903
:102E800020680169C943090609D4C168C943090614
:102E900005D46FF0800101612046FFF79CFD20689A
:102EA0000169C943490609D4C168C943490605D423
:102EB0006FF040010161204600F02FF920680169A0
:102EC000C94389060BD4C168C943890607D46FF08A
:102ED000200101612046BDE87040FFF77DBD70BD57
:102EE00070B586B0044614216846FDF725FA2B4AD2
:102EF000216800242A4802250126914224D1016834
:102F000041F001010160016801F0010105910168D2
:102F100041F0100101600068694600F01000059062
:102F20004FF440700090CDE90154CDE903461D48AF
:102F3000FEF79CFF4FF4C0400090CDE90154CDE96D
:102F400003466946184812E0184A914213D10168B5
:102F500041F0020101600068694600F0020005903E
:102F600020200090CDE901541148CDE90345FEF73A
:102F70007DFF06B070BD0F4A9142FAD1016841F45D
:102F80008071016000680096CDE9015400F4807002
:102F9000CDE90450694603940748E8E70000014082
:102FA000303802400000024000100240000400409F
:102FB00000040240000C004000200240704770B541
:102FC000044690F83C000D4601280DD0012684F8F7
:102FD0003C60022084F83D0042B1042A18D0082A3F
:102FE0002AD00C2A4DD139E0022070BD206801F0B2
:102FF00017FD2068816941F00801816120688169BD
:1030000021F004018161206881692A69114311E07E
:10301000206801F035FD2068816941F4006181611B
:103020002068816921F480618161206881692A6951
:1030300041EA0221816124E0206801F057FD206807
:10304000C16941F00801C1612068C16921F0040132
:10305000C1612068C1692A69114311E0206801F04B
:1030600079FD2068C16941F40061C1612068C169CE
:1030700021F48061C1612068C1692A6941EA0221A5
:10308000C16184F83D60002084F83C0070BD10B53B
:10309000040003D094F83D0010B107E0012010BDFA
:1030A000002084F83C00204600F00CF8022084F850
:1030B0003D00211D206801F02FFC012084F83D0017
:1030C000002010BD7047704710B50446006801220B
:1030D00001F086FC0B492068884202D00A498842E8
:1030E00003D1416C41F4004141642068816801F0E2
:1030F0000701062903D0016841F0010101600020A9
:1031000010BD000000000140000401400068B0F163
:10311000804F01D1FEF7A8BF70477047704700008D
:1031200070B5026804461068D168536910F00F0F3B
:1031300050D003F0010501F4907635435DD0C2070D
:1031400005D0CA0503D5E26B42F00102E2634207F3
:1031500005D5DA0703D0E26B42F00202E263820790
:1031600005D5DA0703D0E26B42F00402E2630207FE
:1031700005D5DA0703D0E26B42F00802E263E26BA6
:10318000002A33D0800604D5880602D5204601F0F7
:10319000D2FF20684069E16BC0F38010090700D4BA
:1031A00028B3204601F0B0FF2068416949061AD5CE
:1031B000416921F040014161606BA0B11B4901658B
:1031C000606BFEF7B8FC002810D0606B016DBDE8A5
:1031D00070400847830610D58B060ED52046BDE803
:1031E000704001F0A8BF2046FFF798FF70BD204651
:1031F000FFF794FF0020E06370BD030606D50B06C1
:1032000004D52046BDE8704002F036B94006F3D53B
:103210004806F1D5D168204621F04001D160202137
:1032200084F8391000F06EFA70BD000031500008CB
:1032300070B5040004D094F83900002510B106E000
:10324000012070BD84F83850204600F023F8242077
:1032500084F839002068C16821F40051C16020461B
:1032600001F0B4FF2068016921F4904101612068F8
:10327000416921F02A0141612068C16841F400518F
:10328000C160E563202084F8390084F83A0000200A
:1032900070BD00002DE9F04F87B007461421684645
:1032A000FDF74AF8BF48BE4B3A680024BD491038C4
:1032B000032502264FF001084FF008099A4216D163
:1032C0000A6842F400220A60096801F400210591AD
:1032D000016841F00101016000688DE8600100F0C3
:1032E0000100CDE9049069460395AF482AE0AF4B51
:1032F0009A422CD10A6842F480120A60096801F4EB
:1033000080110591016841F004010160016801F03C
:1033100004010591016841F00801016000686946F7
:1033200000F00800059098148DE84101CDE903599B
:103330009F48FEF79BFD04208DE84101CDE903592C
:1033400069469C48FEF792FD07B0BDE8F08F9A4BA6
:10335000DFF868C29A4220D10A6842F080420A60CF
:10336000096801F080410591016841F01001016098
:103370000068694600F0100005904FF4C0708DE8B9
:103380004101CDE903596046FEF770FD0022062198
:103390005220FEF7EFFE522020E0894B9A4220D1C6
:1033A0000A6842F000420A60096801F00041059194
:1033B000016841F01001016000688DE8600100F0D3
:1033C0001000CDE90490694603956046FEF74EFD76
:1033D000002205215320FEF7CDFE5320FEF7BCFE50
:1033E000B2E7784BDFF8BCE14FF0070C0EF1040EAA
:1033F0004FF4806A4FF4807B9A4238D1DEF8002087
:1034000042F01002CEF80020DEF8001001F01001AA
:103410000591016841F0020101600068694600F011
:1034200002000590C0208DE84101CDE9035C6648AB
:10343000FEF71CFD664D654828604FF00060C5E949
:103440000104C5E9034A6C61C5E9064B2C622846B4
:103450006C62FEF753FC08B1FDF72AFB7D63002286
:1034600006212520AF63FEF785FE2520B6E7594BE0
:103470009A4237D10A6842F400320A60096801F4BE
:1034800000310591016841F008010160006869465A
:1034900000F00800059060208DE84101CDE9035C53
:1034A0004448FEF7E3FC4A4D4B48603528604FF036
:1034B0000060C5E90104C5E9034A6C61C5E9064B32
:1034C000C012C5E908042846FEF718FC08B1FDF74C
:1034D000EFFA7D63002206212620AF63FEF74AFE45
:1034E00026207BE73D4B9A4218D10A6842F480229D
:1034F0000A60096801F480210591016841F0080122
:1035000001600068694600F0080005904FF44070C3
:103510008DE84101CDE9035C264813E730498A4232
:103520007FF45EAFDEF8002042F02002CEF80020EB
:10353000DEF8001001F020010591016841F0400122
:1035400001600068694600F0400005904FF4844037
:103550008DE84101CDE903592248FEF787FC1C4D57
:103560001A48C035183828608005C5E90104C5E946
:10357000034A6C61C5E9064B4FF48030C5E9080485
:103580002846FEF7BBFB08B1FDF792FA7D630022E7
:1035900006214720AF63FEF7EDFD47201EE7000040
:1035A000004C004040380240000002400050004003
:1035B00000080240000C0240007800400010024069
:1035C000007C0040001001400004024040640240C2
:1035D000380A002000440040886002400048004053
:1035E0000014014000180240F8B5044690F83A0073
:1035F00020283CD1C1B3BAB394F83800012836D0A2
:10360000012084F83800A162A2850025E56322200C
:1036100084F83A00636B1748D863636B16481864E4
:10362000636B1648D864606B134605650846666B85
:10363000216802463046091DFEF7CAFB2068016872
:103640004168009184F83850C16841F48071C160CC
:103650002068416941F0010141612068416941F000
:10366000400141610020F8BDFFE70120FBE7022097
:10367000F9E700008B500008C750000841500008CF
:103680007047704770B5044690F83900202830D153
:1036900069B362B394F8380001282AD0012084F875
:1036A00038002162A284E2840025E563212084F8A9
:1036B0003900236B1048D863236B10481864236BC0
:1036C0000F48D864206B134605652668206B321DB1
:1036D000FEF77EFB21686FF04000086084F83850E8
:1036E0002068416941F080014161002070BD0120E6
:1036F00070BD022070BD0000D1500008FF500008CE
:103700004150000870477047FEE7000010B50446BE
:1037100015220449FFF768FF2068C16841F01001D5
:10372000C16010BDDC6100202DE9F04105467548FF
:103730001EC880E81E004178734C01F00F074188D5
:10374000A4F11806A1F54C42CC3A06D033880122E8
:10375000994225D1B270BDE8F0816C4F0121384605
:10376000FEF76AFC38B14EF6EE6030806078401C9F
:103770006070EE200BE001213846FEF75DFC40B999
:103780004DF6DD5030806078401C6070DD20A07008
:10379000E0702846BDE8F04114225B49FFF772BF94
:1037A000A1F53B43BB3B40D00546594BA1F57F40BB
:1037B000FF3842D007EB870003EB8004207C002811
:1037C000C9D003F0DFFE504934398A6A8862821A10
:1037D0004F700020207494ED000AD5ED010A70EEC0
:1037E000600AC1ED0B0AC1ED010A94ED010A95EDE5
:1037F000021A30EE410A81ED0C0A81ED020ADFED7A
:10380000451A9FED451A002A3AD000BF91ED082ACB
:1038100030EEC22A62EE212A02EE102AB8EE422AC7
:1038200082EE823A84ED023A2CE0607800F10100E9
:1038300060703A480078A070ABE739489FED3A1ABB
:10384000D0ED000A374890ED000A384802E000BF8A
:1038500070EEC10A10EE901A8142F9DC02E000BF5E
:1038600030EE410A10EE101A8142F9DC07EB8700B6
:1038700003EB8000C0ED000A80ED010A02746AE7E4
:1038800084ED021AC1ED080A81ED051AD1ED090A8D
:1038900070EE600A60EEA10A01EE902AF8EE611A5D
:1038A00080EEA12A84ED032A08D001EE102AB8EE9A
:1038B000411AC0EE811AC4ED031A01E084ED031A27
:1038C00081ED090A94ED020A194E81ED030A94ED87
:1038D000030A4FF4005481ED040A6888000A04D1F9
:1038E000012221463046FEF7B3FB68880221B1EB86
:1038F000102FC4D121463046BDE8F0410022FEF72A
:10390000A7BB0000DC61002030030020001402404F
:103910009C60002000007A44000000006F0300203B
:1039200024010020280100200000B443000034439B
:103930000018024010B5044682220449FFF754FEE5
:103940002068C16841F01001C16010BD29620020EB
:103950002DE9F0470024144D144E20E0285DA528E1
:1039600001D0641C1AE028198146B0F805707781EF
:10397000B0F80180052101F0E3FD70B1484608F17F
:10398000090101F0BFFD40B13946204600F010F8B2
:1039900004EB08000930C4B201E00934E4B2F06974
:1039A0008442DBDBBDE8F08729620020440300206D
:1039B000344A30B4104440F20124334AA1F20123C6
:1039C000A14238D01ADC40F20114A1F20113A14245
:1039D00026D00ADC01291AD002291ED0032902D1DF
:1039E000B0F80700D08030BC7047012B1DD0022BEF
:1039F000F9D1B0F80700A2F80F00F4E7072BF2D2D4
:103A0000DFE803F0041E232A2D333A00EBE7B0F879
:103A100007109181407A9073E5E7C0795070E2E732
:103A2000D0F80700C2F81200DDE7B0F80710D18225
:103A3000407A1076D7E7C11D12480F222D3808E0D2
:103A4000C11D10480E221E3803E0C11D0D48102272
:103A5000103830BCFCF757BCC0799070C3E7B0F8A1
:103A600007101181407A9072BDE7C079D0700009CB
:103A7000B9D101201070B6E750F8071F1162808895
:103A80009084B0E72962002044030020104810B55C
:103A90000E4901600321416000214FF40022816042
:103AA000C0E903124FF440124261017601224276CE
:103AB0008276C27601774177FDF7C7FE002803D0F2
:103AC000BDE81040FCF7F4BF10BD000000640040EA
:103AD000AC030020104810B50E490160032141607D
:103AE00000214FF400228160C0E903124FF440121C
:103AF00042610176012242768276C2760177417771
:103B0000FDF7A3FE002803D0BDE81040FCF7D0BFAE
:103B100010BD000000680040D403002010B58AB03A
:103B2000002101220446CDE90612039104910E20E2
:103B3000CDE9082005910091019102916946204646
:103B4000FDF7FEFC2046FDF791FF0AB010BD000016
:103B5000154808B5016841F480010160016801F46D
:103B600080010091016841F40011016000680022A9
:103B700000F40010009005211020FEF7FBFA102041
:103B8000FEF7EAFA002205213920FEF7F3FA392080
:103B9000FEF7E2FA002205213A20FEF7EBFABDE833
:103BA00008403A20FEF7D8BA3038024000B587B056
:103BB0001C2206496846FCF7A6FB0021684602F075
:103BC000D6FC0349086007B000BD00002878000853
:103BD000300000202DE9F04F87B014216846FCF733
:103BE000ABFB54480024016841F0100101600168FA
:103BF00001F010010591016841F0020101600168C6
:103C000001F002010591016841F040010160016885
:103C100001F040010591016841F004010160016873
:103C200001F004010591016841F0010101600168A2
:103C300001F001010591016841F00801016001688E
:103C400001F008010591016841F48071016001688B
:103C500001F480710591016841F020010160016863
:103C600001F020010591016841F0800101600068C8
:103C7000DFF8C48000F0800042F23E05059000228B
:103C800029464046FEF7E4F9DFF8B09000223C21D7
:103C90004846FEF7DDF9DFF8A8A044F2420600220C
:103CA00031465046FEF7D4F9DFF898B04FF400677C
:103CB000002239465846FEF7CBF900950125CDE99B
:103CC0000154694640460394FEF7D0F8CDE900540C
:103CD000694650460295FEF7C9F83C200090CDE9B0
:103CE0000154694648460394FEF7C0F80096CDE9B2
:103CF0000154694650460394FEF7B8F84FF4E0507B
:103D00008DE8310069464846FEF7B0F80420CDE959
:103D1000000469460C480294FEF7A8F80097CDE924
:103D20000154694658460394FEF7A0F807B0BDE871
:103D3000F08F00003038024000180240001C0240A2
:103D4000001402400010024000040240104810B568
:103D50000E4901604FF48271416000218160C160B1
:103D60004FF400720161C0E905123022C0E9072159
:103D7000416281620A21C162FEF7C6FC002803D0BD
:103D8000BDE81040FCF794BE10BD0000005001409B
:103D90006006002010B596B000240F941094119482
:103DA000129413941C2168461494FCF7C5FA202140
:103DB00007A8FCF7C1FA344832490160A721C0E9DD
:103DC000011444F61F61C0E9031444618461FEF7E5
:103DD0004FFE08B1FCF76CFE4FF480500F900FA916
:103DE0002948FEF7A2FE08B1FCF762FE2648FFF75D
:103DF0004EF908B1FCF75CFE139413A92248149401
:103E0000FEF715FE08B1FCF753FE6020CDE9000473
:103E10000294039404940594002269461A48069477
:103E2000FFF7CDF808B1FCF743FE042269461648B7
:103E3000FFF7C5F808B1FCF73BFE082269461248B7
:103E4000FFF7BDF808B1FCF733FE0C2269460E48B7
:103E5000FFF7B5F808B1FCF72BFE07940894099416
:103E60004FF400500A94CDE90B4007A906480E9480
:103E7000FEF7B3FD08B1FCF71BFE0348FFF730F86F
:103E800016B010BD00000140F806002010B58EB03D
:103E900000240794089409940A940B941C21684602
:103EA0000C94FCF749FA1D481B49C0E900148460D2
:103EB000C46004618461FEF7DBFD08B1FCF7F8FD26
:103EC0004FF48050079007A91448FEF72EFE08B162
:103ED000FCF7EEFD1148FFF7DAF808B1FCF7E8FD52
:103EE0000B940BA90D480C94FEF7A1FD08B1FCF74B
:103EF000DFFD6020CDE900040294042269460748F2
:103F00000494FFF75CF808B1FCF7D2FD0348FEF714
:103F1000E7FF0EB010BD000000040040380700208D
:103F200010B58CB024216846FCF706FA0024164828
:103F3000099414490A9401600321C0E901144FF661
:103F4000FE71C0E9031484610120CDE90004CDE9CC
:103F500002040494CDE90540079469460A48089490
:103F6000FEF74EFE08B1FCF7A3FD099409A9064827
:103F70000A94FEF75CFD002801D0FCF799FD0CB017
:103F800010BD0000000800407807002010B58EB07A
:103F900000240794089409940A940B941C21684601
:103FA0000C94FCF7C9F91D481B4901605321C0E975
:103FB0000114C46004618461FEF75AFD08B1FCF786
:103FC00077FD4FF48050079007A91448FEF7ADFD28
:103FD00008B1FCF76DFD1148FFF759F808B1FCF77F
:103FE00067FD0B940BA90D480C94FEF720FD08B15A
:103FF000FCF75EFD6020CDE9000402940C226946C6
:1040000006480494FEF7DBFF08B1FCF751FD0348B6
:10401000FEF766FF0EB010BD000C0040B807002090
:1040200010B58CB024216846FCF786F900241648A8
:10403000099414490A9401600321C0E901144FF660
:10404000FE71C0E90314446184610120CDE90004DC
:10405000CDE902040494CDE90540079469460A4875
:104060000894FEF7CDFD08B1FCF722FD099409A9DB
:1040700005480A94FEF7DBFC002801D0FCF718FD88
:104080000CB010BD00040140F80700200C4810B52A
:104090000A4901604FF4E1314160002181600C2246
:1040A000C160C0E904128161C161FFF7C1F8002855
:1040B00003D0BDE81040FCF7FBBC10BD004C004035
:1040C000380800200C4810B50A4901604FF4E1316E
:1040D0004160002181600C22C160C0E9041281614D
:1040E000C161FFF7A5F8002803D0BDE81040FCF738
:1040F000DFBC10BD00500040780800200C4810B50F
:104100000A4901604FF4E1314160002181600C22D5
:10411000C160C0E904128161C161FFF789F800281C
:1041200003D0BDE81040FCF7C3BC10BD00780040D0
:10413000B80800200C4810B50A4901604FF4E1317D
:104140004160002181600C22C160C0E904128161DC
:10415000C161FFF76DF8002803D0BDE81040FCF7FF
:10416000A7BC10BD007C0040F80800200C4810B52A
:104170000A4901604FF4E1314160002181600C2265
:10418000C160C0E904128161C161FFF751F80028E4
:1041900003D0BDE81040FCF78BBC10BD00100140FF
:1041A000380900200C4810B50A4901604FF461310C
:1041B0004160002181600C22C160C0E9041281616C
:1041C000C161FFF735F8002803D0BDE81040FCF7C7
:1041D0006FBC10BD00440040780900200C4810B5A9
:1041E0000A4901604FF4E1314160002181600C22F5
:1041F000C160C0E904128161C161FFF719F80028AC
:1042000003D0BDE81040FCF753BC10BD004800408F
:10421000B80900200C4810B50A4901604FF4E1319B
:104220004160002181600C22C160C0E904128161FB
:10423000C161FEF7FDFF002803D0BDE81040FCF788
:1042400037BC10BD00140140F8090020FEE770479C
:10425000704700000E4A10B54F23A2F14F010D48E0
:10426000FCF701FC0B480068C16841F01001C16017
:10427000074A4F239E32A2F14F010748FCF7F3FB98
:1042800005480068C16841F01001C16010BD000020
:10429000075D0020F8090020780900202DE9F04191
:1042A00004462DED028B4FF40066524D524F07E04D
:1042B000012231463846FDF7CBFEA878401EA87093
:1042C000A8780028F4D120789FED4C8AF2EE048A79
:1042D000012841D128784A4EC0EB001101EB801033
:1042E000304430F9071F494200EE101AB8EEC00AF8
:1042F000C0EE080AC4ED010AB0F9021000EE101A6F
:10430000B8EEC00AC0EE080AC4ED030AB0F9041002
:104310001330494200EE101AB8EEC00AC0EE280A67
:10432000C4ED020AFCF730FB84ED040A2878C0EBE8
:10433000001101EB801030441E30FCF725FB84EDAA
:10434000050A2878C0EB001101EB801030442230C0
:10435000FCF71AFB84ED060A2078022842D168781F
:10436000274EC0EB001101EB80109E36304430F92F
:10437000071F494200EE101AB8EEC00AC0EE080A44
:10438000C4ED010AB0F9021000EE101AB8EEC00A2E
:10439000C0EE080AC4ED030AB0F904101330494214
:1043A00000EE101AB8EEC00AC0EE280AC4ED020AE8
:1043B000FCF7EAFA84ED040A6878C0EB001101EB1F
:1043C000801030441E30FCF7DFFA84ED050A68786F
:1043D000C0EB001101EB801030442230FCF7D4FA1E
:1043E00084ED060A6088401C6080BDEC028BBDE84D
:1043F000F08100005C020020001002400000C84272
:10440000B85C0020DFED120A9FED121A10B560EEC5
:10441000200A2DED028B80EE810A10EE100AFCF7C7
:104420004EF941EC100B01F0C7F80B48B0EE408A92
:10443000F0EE608AB0F90200FCF711F953EC182B8A
:10444000FCF72CF8FCF71CF9BDEC028B00B210BD98
:10445000DB0F49400000344330010020224910B5F1
:10446000162201F11600FBF74EFF20481E49027884
:104470001D482C31AAB3012A32D131F8192F00BFBF
:10448000C2F30A0242804A78D3088A7843EA421388
:10449000C3F30A038380CB78920942EA83030A7943
:1044A00043EA8223C3F30A03C38053084A7943EAE9
:1044B000C213C3F30A03038193098372C2F3011287
:1044C000C272CA8882810A89C2814A8902820A7BB1
:1044D00082744A7BC274C98981820188491C018027
:1044E00010BDFFE70A88CBE7AC6200206A0300201A
:1044F0000C480D4B0021018002221A7052024280AA
:104500008280C280028101228272C2728181C18155
:1045100001828174C1748182162201461630FBF734
:10452000F2BE0000AC6200206A03002038B50446E9
:10453000FFF7DEFF2068416941F040014161192029
:104540000090074B2168A3F11902091D606BFDF76C
:10455000C0FA2068C16841F01001C16038BD000098
:10456000F162002038B50B460092044600228021FB
:1045700000F008F8002804D0606D40F0200060656D
:10458000032038BD2DE9F0411D4617460E4604466E
:10459000DDF8188008E0681C06D0FDF75FFDA0EB91
:1045A0000800A8420BD255B12068806836EA0000A6
:1045B00030D00020B842EED10020BDE8F081206864
:1045C000416821F0E00141606068B0F5827F0BD165
:1045D000A068B0F5004F02D0B0F5806F04D120681C
:1045E000016821F040010160A06AB0F5005F09D1C7
:1045F0002068016821F4005101602068016841F4DD
:1046000000510160012084F85100002084F850001E
:104610000320D2E70120CDE72DE9F04100212E480B
:10462000FCF796FB0227012600252C4C022815D00A
:10463000032811D02570207880B3012810D00228DB
:104640002AD10A212448FCF72CFB40B30A21244834
:10465000FCF727FB30B327E02670ECE72770EAE78A
:1046600001211D48FCF774FB012807D0E6700121E9
:104670001948FCF76DFB02280DD011E0E078002806
:10468000F5D0607810B1022802D002E0677000E037
:104690006570E570EBE7A670BDE8F0811AE003E015
:1046A000A570F9E76570E67009210B48FCF7F9FA87
:1046B00030B109210A48FCF7F4FA08B96770E570CF
:1046C00003210548FCF73AFB0028E9D0E0780028F0
:1046D000E6D1E0E76570E3E7AC6200206B03002001
:1046E000C262002010B590F90C10002919DCB0F955
:1046F000043000220B496333C62B11D8B0F92030A7
:10470000A3F51C54103C03D042F21074E34207D1CD
:104710000B785B1CDBB20B70142B02D328230373C2
:104720000A7010BD7003002030B512480025124CED
:104730000078012801D030B106E00F4810384088D9
:104740004042608100E065810B48FFF7CBFF94F9A0
:104750000C00002804DD4FF4FA616181401E2073D3
:10476000054800F00DF805480078002800D12581A3
:1047700030BD00006D030020800300206B0300208B
:1047800030B5B0F91C50C5834189828842F210735C
:10479000891A0AB28283018C114409B201849942B8
:1047A00000DD1946174C0184A14200DA214600EED3
:1047B000102A0184D0ED040AB8EEC00A90ED051A63
:1047C00060EE800A00EE101A511BB8EEC00A41EEEE
:1047D000000A00EE101A90ED061A1946B8EEC00A4B
:1047E00041EE000ABDEEE00A10EE102A42628A4253
:1047F00000DC11460BB2214603818A4200DB1946D8
:10480000018130BDF0D8FFFF10B5502080F3118832
:10481000BFF34F8FBFF36F8F02F0BAFE18B1044998
:104820004FF080500860002080F3118810BD000018
:1048300004ED00E030B593B030216846FBF77CFD15
:1048400014210CA8FBF778FD19480025016841F0F8
:1048500080510160006800F0805011901548016897
:1048600041F4404101600068022400F4404011908E
:1048700001200090000401908001CDE9064006204F
:104880000890A820CDE9090404200B906846FDF7A4
:10489000ADFD0CA90F2081E831004FF4A0500F901E
:1048A000E002109005210CA8FDF796FC13B030BD76
:1048B00040380240007000401048016841F4700127
:1048C00001600F48016841F0010101600C4A0021BC
:1048D0000832116002680B4B1A400260031D0A4A3D
:1048E0001A60026822F48022026005480C300160E0
:1048F00002495806803908607047000088ED00E0E2
:1049000000380240FFFFF6FE103000240148FEF799
:1049100034BA0000B8060020F0B50268254C264DD8
:10492000264E274F274B4FF0804CA04209D06045C0
:1049300007D0A84205D0B04203D0B84201D0984277
:1049400004D122F0700E4A6842EA0E02A0421BD047
:10495000604519D0A84217D0B04215D0B84213D044
:10496000984211D0184DA8420ED0184DA8420BD035
:10497000174DA84208D0174DA84205D0164DA842A1
:1049800002D0164DA84203D122F44075CA682A43CA
:104990004D6922F080022A4302608A68C2620A6876
:1049A0008262A04201D0984201D1096901630121CC
:1049B0004161F0BD000001400004004000080040DB
:1049C000000C004000040140004001400044014050
:1049D0000048014000180040001C0040002000403A
:1049E00010B501F01F030121046A99408C43046251
:1049F000016A9A401143016210BD10B5846842EA11
:104A0000032224F47F440A432243826010BD82685B
:104A100022F070020A4342F00701816070470000F3
:104A2000F0B5026A22F001020262036A42688469F8
:104A3000124E24F073050C682C4323F002058B689A
:104A40002B430D4DA84201D0B04205D123F00807F9
:104A5000CB683B4323F00403A84201D0B04205D108
:104A60004D6922F4407215438A692A434260846189
:104A7000496841630362F0BD000001400004014049
:104A8000F0B5026A22F010020262026A4368846989
:104A90000D6824F4E64444EA05248D6822F02002DF
:104AA00042EA05120F4D104EA84201D0B04206D185
:104AB000CF6822F0800242EA071222F04002A842A8
:104AC00001D0B04207D14D6923F4406343EA850326
:104AD0008D6943EA850343608461496881630262AA
:104AE000F0BD00000000014000040140F0B5026A82
:104AF00022F480720262026A4368C46922F400727E
:104B000024F073050C68124E2C438D6842EA05228E
:104B10000E4DA84201D0B04206D1CF6822F4006207
:104B200042EA072222F48062A84201D0B04207D1B3
:104B30004D6923F4405343EA05138D6943EA051395
:104B40004360C4614968C1630262F0BD0000014076
:104B50000004014030B5026A22F480520262046A05
:104B60004268C3690D6823F4E64343EA05238D6870
:104B700024F4005444EA0534084DA84202D0084DFC
:104B8000A84204D14D6922F4804242EA8512426073
:104B9000C36149680164046230BD00000000014047
:104BA0000004014010B5036A046A24F001040462A1
:104BB000846924F0F00444EA021423F00A020A4350
:104BC0008461026210BD10B5036A23F01003036212
:104BD0008369046A23F4704343EA023224F0A00399
:104BE00043EA01118261016210BD00008AB00E4EDD
:104BF0004FF0FF376C4607AD3A466946706802F0E1
:104C000085FB9DF80000012809D00228F4D101237A
:104C100006482A46211D00BFFCF72EFCECE70123C5
:104C20002A46211D0248F7E724000020D403002073
:104C3000AC0300202DED028B82B04FF47A7002F0AD
:104C400071F800250095FCF7F5FB02F09BFC9FED49
:104C50002D8ADFF8B4A0DFF8B480DFF8B4B02D4FB0
:104C60002D4C42F210764FF06409009097ED050A42
:104C700020EE080ABDEEC00A8AED000AFCF7C4FB6C
:104C8000618820888142404603D90570A8F8025007
:104C900003E00278521C88F80020B14202D9A4F83F
:104CA0000290258098F80010142903D90121A8F852
:104CB000021002E0B8F80200E8B118482584057037
:104CC0001748057060882080B04203D9A4F802908C
:104CD0000A2020809BF8000080B11248B4F9082017
:104CE000B0F91810B7F91E00FCF74EFB0521684615
:104CF00002F03EF8BAE7FFF717FDE3E7002211469E
:104D00001046F1E70000C8422002002024000020E5
:104D10006B030020BC010020800300206D030020F5
:104D20006C030020580100204FF0FF340348FFF7C8
:104D3000B5FA2146012001F0FDFEF7E7240200202C
:104D40004FF0FF342146012001F0F4FE0148FEF748
:104D5000EBFCF7E7B80800204FF0FF3421460120B4
:104D600001F0E8FEFEF7F4FDF8E7000008B50020CA
:104D7000009002F007FC084D4FF48044009021465B
:104D80002846FDF75EF9FBF7C9FEFBF793FE6421A9
:104D9000684601F0EDFFF2E7001402402DED028BB2
:104DA0004FF0FF379FED0F8A0F4D104C104E0F48FC
:104DB000FFF774FA94ED030AB5EEC00AF1EE10FAAB
:104DC00002DD30EE480A01E030EE080A39460120E3
:104DD00085ED020A94ED020A86ED020A01F0AAFEB0
:104DE000E5E70000000034435801002040020020A5
:104DF000BC0100204FF0FF342146012001F09AFE53
:104E0000FFF72CFBF8E708B502F0BCFB0090FFF7BA
:104E100003FC0A21684601F0ABFFF8E72DE9FC41ED
:104E200001F00CFF002224211E2002F057F9434913
:104E300008604348FEF772FE02214148FCF70AFB76
:104E400001F03AFA01F062F83E48FFF76FFBFFF716
:104E5000FFF93D48FEF75AFCFFF7FCF93B48FEF727
:104E600069FDFBF7ADFE3A480625CDE90050002369
:104E7000C82238A13B4802F01FFB35480426001D1C
:104E8000CDE9006000234FF4C87237A13B4802F01F
:104E900013FB2F4805241830CDE900404FF49677D6
:104EA00000233A4636A1394802F006FB2848002381
:104EB0000830CDE90060642235A1394802F0FCFADF
:104EC000234800231C30CDE900503A4635A13A482A
:104ED00002F0F2FA1E4800230C30CDE900406422B3
:104EE00036A13B4802F0E8FA194800232030CDE90A
:104EF00000403A4637A13B4802F0DEFA144800234E
:104F00001030CDE90040962237A13D4802F0D4FA96
:104F10000F4800231430CDE90040962239A13D48C6
:104F200002F0CAFA4FF47A70FCF78EFF002001F00D
:104F300065FFBDE8FC4101F0A1BE00002800002093
:104F4000AC03002038090020B8080020F808002031
:104F5000000000205461736B5F43414E53656E64E3
:104F600000000000ED4B00085461736B5F436F6EEF
:104F700074726F6C5F4E6F726D616C00354C00081F
:104F8000534D5F557064617465000000074E000862
:104F90005461736B5F4C4544426C696E6B0000005A
:104FA0006D4D00085461736B5F4A756467655265A7
:104FB0006365697665000000594D00085461736BA4
:104FC0005F5243446174615F5570646174650000B1
:104FD000F54D00085461736B5F4A6574736F6E43DF
:104FE0006F6D6D00414D00085461736B5F475952FE
:104FF0004F446174615F5570646174650000000026
:10500000294D00085461736B5F50697463685F4792
:1050100059524F009D4D00080148FEF781B800002D
:10502000B80800200148FEF77BB80000F80800200F
:1050300010B5806B0021C185C184FEF76FF810BDEB
:1050400070B5846B2068406994F83910C0F3C010C3
:105050000025212904D118B1E584204600F062F82A
:105060002068406994F83A10C0F38010222904D1D6
:1050700018B1E585204600F047F8E06B40F01000DD
:10508000E0632046FEF74AF870BD10B50146806B1C
:1050900009680968C90513D40021C1850168CA6877
:1050A00022F48072CA6001684A6922F001024A61F2
:1050B00001684A6922F040024A61202180F83A10D2
:1050C000FEF7DEFA10BD10B5806BFEF7DAFA10BD00
:1050D00010B50146806B09680968C9050CD4002128
:1050E000C18401684A6922F080024A610068C1688F
:1050F00041F04001C16010BDFEF704FB10BD10B5CA
:10510000806BFEF700FB10BD0168CA6822F4907244
:10511000CA6001684A6922F001024A61202180F8D0
:105120003A1070470168CA6822F0C002CA602021A4
:1051300080F83910704710B590F83A10222901D044
:10514000022010BD8168B1F5805F11D0016900298E
:1051500001681FD0496801F07F03816A4A1C82629E
:105160000B70C18D491E0904090CC18518D02BE0B4
:105170000269816A002A0268526805D0D2B20A80A8
:10518000816A491C8162ECE7C2F308020A80816AE5
:10519000891CF7E74A68816A4B1C83620A70E0E762
:1051A0000168CA6822F02002CA600168CA6822F455
:1051B0008072CA6001684A6922F001024A612021B6
:1051C00080F83A10FEF75CFA002010BD2DE9F0419E
:1051D000044600680169E26821F44051114301610D
:1051E0002169A068E26908436169114322680843A4
:1051F000D16849F20C6399430143D1602068416949
:10520000A26921F4407111434161E2696425B2F55C
:10521000004F9748974922684FF032083FD08A42A2
:1052200001D082427CD1FDF79FF800EBC00101EB79
:10523000001061688900B0FBF1F6FDF795F800EB0E
:10524000C00101EB001061688900B0FBF1F0B0FB18
:10525000F5F06FF01801484306EB800108EB0110F0
:10526000B0FBF5F000F0F006FDF77EF800EBC001B2
:1052700001EB001061688900B0FBF1F0B0FBF5F0C4
:1052800006EB0016FDF770F800EBC00101EB001013
:1052900061688900B0FBF1F7FDF766F8D2E08A4259
:1052A00001D082423DD1FDF75FF800EBC00101EB78
:1052B000001061684900B0FBF1F0B0FBF5F00601A9
:1052C000FDF752F800EBC00101EB001061684900E6
:1052D000B0FBF1F7FDF748F800EBC00101EB00105F
:1052E00061684900B0FBF1F0B0FBF5F06FF0180118
:1052F000484307EB800108EBC100B0FBF5F000F07C
:10530000F80006EB4006FDF72FF800EBC00101EBBB
:10531000001061684900B0FBF1F7FDF725F83CE0AB
:1053200055E0FDF711F800EBC00101EB00106168DA
:105330004900B0FBF1F0B0FBF5F00601FDF704F811
:1053400000EBC00101EB001061684900B0FBF1F710
:10535000FCF7FAFF00EBC00101EB001061684900A7
:10536000B0FBF1F0B0FBF5F06FF01801484307EB2C
:10537000800108EBC100B0FBF5F000F0F80006EB8F
:105380004006FCF7E1FF00EBC00101EB0010616893
:105390004900B0FBF1F7FCF7D7FF00EBC00101EBD0
:1053A000001061684900B0FBF1F0B0FBF5F06FF060
:1053B0001801484307EB800108EBC100B0FBF5F092
:1053C00000F00700216830448860BDE8F081FCF7F8
:1053D000BBFF00EBC00101EB001061688900B0FB6E
:1053E000F1F6FCF7B1FF00EBC00101EB00106168C2
:1053F0008900B0FBF1F0B0FBF5F06FF01801484305
:1054000006EB800108EB0110B0FBF5F000F0F006B0
:10541000FCF79AFF00EBC00101EB00106168890006
:10542000B0FBF1F0B0FBF5F006EB0016FCF78CFFDB
:1054300000EBC00101EB001061688900B0FBF1F7DF
:10544000FCF782FF00EBC00101EB001061688900EE
:10545000B0FBF1F0B0FBF5F06FF01801484307EB3B
:10546000800108EB0110B0FBF5F000F00F00A9E798
:10547000001401400010014090F83910212901D09A
:10548000022070478168B1F5805F016A0BD04A1C29
:105490000262026809785160C18C491E0904090C36
:1054A000C1840ED017E009880268C1F30801516079
:1054B00001690029016A02D0491C0162ECE7891CDC
:1054C000FBE70168CA6822F08002CA600068C16810
:1054D00041F04001C1600020704700000148FDF725
:1054E0001FBE0000380900200148FDF719BE00006A
:1054F000780900200148FDF713BE0000F8090020DC
:10550000FEE7000030B50C46050014D0022C12D97D
:105510000A48A11E82882846FBF784FB2919C2B2DB
:1055200011F8023C9A4206D111F8011CB1EB102F80
:1055300001D1012030BD002030BD00004403002017
:1055400030B50C4605000CD0022C0AD9FF22611E92
:10555000FBF77EFB291911F8011C814201D10120C2
:1055600030BD002030BD03B401984100009850EADE
:10557000C12018BF04204A0D18BF40F0010040F2BE
:10558000FF72B2EB515F08BF40F00200012808BF74
:10559000052002B070470907090E002804DB00F15E
:1055A000E02080F80014704700F00F0000F1E020C8
:1055B00080F8141D7047000010B52F499FED2C1B7B
:1055C0002DED020B84B0059820F000408842D8BF32
:1055D0009DED040B2DDD2949884209D1049840B97D
:1055E0004FF0010000F07CFC00F04AFC06B010BD5A
:1055F00005DB9DED040B00F037FC06B010BD6846DE
:105600009DED040B00F048F810F0030004BF9DED81
:10561000021B9DED000B0CD001280ED09DED021B4E
:105620009DED000B022817D0012000F085FB06B08D
:1056300010BD00F04DFA06B010BD9DED021B9DEDB2
:10564000000B012000F078FB51EC100B81F00041C1
:1056500006B041EC100B10BD00F03AFA51EC100B03
:1056600081F0004106B041EC100B10BD00000000BD
:105670000000000000000000FB21E93F0000F07F77
:105680002DED020B019820F0004001909DED000BE4
:1056900002B07047000000002DE9F14F04462DEDE7
:1056A000020B2DED088B8AB09FEDE70B80ED020B0E
:1056B000139EE74826F0004585420ADC9DED120B5B
:1056C000002084ED000B0AB0BDEC088B03B0BDE8F0
:1056D000F08FE0489FEDE0AB9FEDE1BBA84247DDD6
:1056E000E14F9FEDE39B9FEDE48B9DED120B53EC9F
:1056F0001A2B51EC100B002E1CDDFAF7C9FE41EC01
:10570000100BBD4208D053EC1B2B51EC100BFAF7D9
:10571000BFFEC4E900010BE053EC192B51EC100B58
:10572000FAF7B6FE53EC182BFAF7B2FEC4E9000103
:105730000120C8E7FAF70BFE41EC100BBD4208D080
:1057400053EC1B2B51EC100BFAF701FEC4E90001DE
:105750000BE053EC192B51EC100BFAF7F8FD53EC5E
:10576000182BFAF7F4FDC4E900014FF0FF30AAE767
:10577000C348A84279DB9DED120B51EC100B00F0F1
:10578000B6FB41EC180B9FEDC00B53EC102BFAF756
:1057900085FE9FEDBF1B53EC112BFAF7D8FDFAF7EE
:1057A0006FFF0746FAF75BFF41EC190B53EC1A2B1E
:1057B000FAF774FE53EC182BFAF76DFE41EC180B58
:1057C00053EC1B2B51EC190BFAF768FEDFF8C8A25B
:1057D00041EC100B4FEA15580125FA4453EC102BFD
:1057E00051EC180BFAF754FE032DC4E900013DD02B
:1057F000C1F30A5005EB4511A8EB000011398142B5
:1058000034DA0AEB051BB0EE48AA9BED000BF0EE74
:1058100068AA53EC102B51EC190BFAF73FFE41EC40
:105820001B0B51EC1A0B53EC1B2BFAF731FE41EC1E
:10583000180B51EC1A0B53EC182BFAF729FE53EC0A
:105840001B2BFAF725FE9BED020B41EC1A0B53ECD8
:10585000102B51EC190BFAF721FE53EC1A2BFAF727
:1058600017FE41EC100B6D1CB8E70EE0002EA8BF30
:105870003846BFF628AF94ED000B51EC100B81F0C9
:105880000041C4E9000178421DE7C6F3130040F46B
:10589000801EC6F30A50A0F2F530471100F01F0534
:1058A000C5F12000DDF848B0089000200690079070
:1058B0000520EC467949002D07EB0002794408BF2A
:1058C00051F8221009D051F8223001EB8201AB408F
:1058D0004A68089922FA01F11943A1FB0E26A1FB9F
:1058E0000B131A449A4234BF0123002303EB06082A
:1058F0000CEB8003D3E901A60E448E4234BF012194
:10590000002192448A4411B1924502D903E09245A4
:1059100001D2012100E00021C3E901A641444CF875
:105920002010011EA0F10100C4DC029800F100501B
:10593000850F0298DDE903678000DDF81480FAF72F
:105940008EFE41EC1A0B3046FAF7D8FF9FED541B40
:1059500053EC112BFAF7A2FD41EC1B0B3846FAF77A
:10596000CDFF9FED511B53EC112BFAF797FD41EC46
:10597000180B4046FAF7C2FF9FED4D1B53EC112B5D
:10598000FAF78CFD41EC190B51EC180B53EC192B69
:10599000FAF7DDFC53EC1B2BFAF7D9FC53EC1A2B6E
:1059A000FAF7D5FCCDE90801002008909DED080B21
:1059B00053EC1A2B51EC100BFAF76AFD53EC1B2B2E
:1059C000FAF766FD53EC182BFAF762FD53EC192B2E
:1059D000FAF761FD9FED381B53EC112BFAF75EFDD2
:1059E0009FED370B41EC180B53EC102B9DED080B82
:1059F00051EC100BFAF752FD53EC182BFAF7A7FCF9
:105A00009FED310B41EC180B53EC102B9DED080B67
:105A100051EC100BFAF742FD53EC182BFAF797FCF8
:105A200041EC100B139810F0004F06D06D4251EC72
:105A3000100B81F0004141EC100B284684ED000B67
:105A400041E600000000000000000000000000002F
:105A5000FB21E93F7CD9024000004054FB21F93F83
:105A60003163621A61B4D03DFB21F93F00000000B0
:105A70000000601A61B4D03D7370032E8A19A33BF5
:105A8000FB2139410000000083C8C96D305FE43F4D
:105A9000000000000000E03FCA23000018230000BF
:105AA000000000000000103E000000000000103C5C
:105AB000000000000000103A182D4454FB21F93D6D
:105AC0003326A611460B113C00000054FB21F93D82
:105AD00010B52DED040B2DED088B82B0B0EE419A80
